{
  "abi": [
    {
      "inputs": [],
      "stateMutability": "nonpayable",
      "type": "constructor"
    },
    {
      "inputs": [],
      "name": "TokenIsSoulbound",
      "type": "error"
    },
    {
      "anonymous": false,
      "inputs": [
        {
          "indexed": true,
          "internalType": "address",
          "name": "owner",
          "type": "address"
        },
        {
          "indexed": true,
          "internalType": "address",
          "name": "approved",
          "type": "address"
        },
        {
          "indexed": true,
          "internalType": "uint256",
          "name": "tokenId",
          "type": "uint256"
        }
      ],
      "name": "Approval",
      "type": "event"
    },
    {
      "anonymous": false,
      "inputs": [
        {
          "indexed": true,
          "internalType": "address",
          "name": "owner",
          "type": "address"
        },
        {
          "indexed": true,
          "internalType": "address",
          "name": "operator",
          "type": "address"
        },
        {
          "indexed": false,
          "internalType": "bool",
          "name": "approved",
          "type": "bool"
        }
      ],
      "name": "ApprovalForAll",
      "type": "event"
    },
    {
      "anonymous": false,
      "inputs": [
        {
          "indexed": true,
          "internalType": "address",
          "name": "from",
          "type": "address"
        },
        {
          "indexed": true,
          "internalType": "address",
          "name": "to",
          "type": "address"
        },
        {
          "indexed": true,
          "internalType": "uint256",
          "name": "tokenId",
          "type": "uint256"
        }
      ],
      "name": "Transfer",
      "type": "event"
    },
    {
      "inputs": [
        {
          "internalType": "address",
          "name": "to",
          "type": "address"
        },
        {
          "internalType": "uint256",
          "name": "tokenId",
          "type": "uint256"
        }
      ],
      "name": "approve",
      "outputs": [],
      "stateMutability": "nonpayable",
      "type": "function"
    },
    {
      "inputs": [
        {
          "internalType": "address",
          "name": "owner",
          "type": "address"
        }
      ],
      "name": "balanceOf",
      "outputs": [
        {
          "internalType": "uint256",
          "name": "",
          "type": "uint256"
        }
      ],
      "stateMutability": "view",
      "type": "function"
    },
    {
      "inputs": [
        {
          "internalType": "uint256",
          "name": "tokenId",
          "type": "uint256"
        }
      ],
      "name": "burn",
      "outputs": [],
      "stateMutability": "nonpayable",
      "type": "function"
    },
    {
      "inputs": [
        {
          "internalType": "uint256",
          "name": "tokenId",
          "type": "uint256"
        }
      ],
      "name": "getApproved",
      "outputs": [
        {
          "internalType": "address",
          "name": "",
          "type": "address"
        }
      ],
      "stateMutability": "view",
      "type": "function"
    },
    {
      "inputs": [
        {
          "internalType": "address",
          "name": "owner",
          "type": "address"
        },
        {
          "internalType": "address",
          "name": "operator",
          "type": "address"
        }
      ],
      "name": "isApprovedForAll",
      "outputs": [
        {
          "internalType": "bool",
          "name": "",
          "type": "bool"
        }
      ],
      "stateMutability": "view",
      "type": "function"
    },
    {
      "inputs": [],
      "name": "name",
      "outputs": [
        {
          "internalType": "string",
          "name": "",
          "type": "string"
        }
      ],
      "stateMutability": "view",
      "type": "function"
    },
    {
      "inputs": [
        {
          "internalType": "uint256",
          "name": "tokenId",
          "type": "uint256"
        }
      ],
      "name": "ownerOf",
      "outputs": [
        {
          "internalType": "address",
          "name": "",
          "type": "address"
        }
      ],
      "stateMutability": "view",
      "type": "function"
    },
    {
      "inputs": [
        {
          "internalType": "address",
          "name": "to",
          "type": "address"
        }
      ],
      "name": "safeMint",
      "outputs": [],
      "stateMutability": "payable",
      "type": "function"
    },
    {
      "inputs": [
        {
          "internalType": "address",
          "name": "from",
          "type": "address"
        },
        {
          "internalType": "address",
          "name": "to",
          "type": "address"
        },
        {
          "internalType": "uint256",
          "name": "tokenId",
          "type": "uint256"
        }
      ],
      "name": "safeTransferFrom",
      "outputs": [],
      "stateMutability": "nonpayable",
      "type": "function"
    },
    {
      "inputs": [
        {
          "internalType": "address",
          "name": "from",
          "type": "address"
        },
        {
          "internalType": "address",
          "name": "to",
          "type": "address"
        },
        {
          "internalType": "uint256",
          "name": "tokenId",
          "type": "uint256"
        },
        {
          "internalType": "bytes",
          "name": "data",
          "type": "bytes"
        }
      ],
      "name": "safeTransferFrom",
      "outputs": [],
      "stateMutability": "nonpayable",
      "type": "function"
    },
    {
      "inputs": [
        {
          "internalType": "address",
          "name": "operator",
          "type": "address"
        },
        {
          "internalType": "bool",
          "name": "approved",
          "type": "bool"
        }
      ],
      "name": "setApprovalForAll",
      "outputs": [],
      "stateMutability": "nonpayable",
      "type": "function"
    },
    {
      "inputs": [
        {
          "internalType": "bytes4",
          "name": "interfaceId",
          "type": "bytes4"
        }
      ],
      "name": "supportsInterface",
      "outputs": [
        {
          "internalType": "bool",
          "name": "",
          "type": "bool"
        }
      ],
      "stateMutability": "view",
      "type": "function"
    },
    {
      "inputs": [],
      "name": "symbol",
      "outputs": [
        {
          "internalType": "string",
          "name": "",
          "type": "string"
        }
      ],
      "stateMutability": "view",
      "type": "function"
    },
    {
      "inputs": [],
      "name": "tokenId",
      "outputs": [
        {
          "internalType": "uint256",
          "name": "",
          "type": "uint256"
        }
      ],
      "stateMutability": "view",
      "type": "function"
    },
    {
      "inputs": [
        {
          "internalType": "uint256",
          "name": "tokenId",
          "type": "uint256"
        }
      ],
      "name": "tokenURI",
      "outputs": [
        {
          "internalType": "string",
          "name": "",
          "type": "string"
        }
      ],
      "stateMutability": "view",
      "type": "function"
    },
    {
      "inputs": [
        {
          "internalType": "address",
          "name": "from",
          "type": "address"
        },
        {
          "internalType": "address",
          "name": "to",
          "type": "address"
        },
        {
          "internalType": "uint256",
          "name": "tokenId",
          "type": "uint256"
        }
      ],
      "name": "transferFrom",
      "outputs": [],
      "stateMutability": "nonpayable",
      "type": "function"
    }
  ],
  "bytecode": {
    "object": "0x608060405260006006553480156200001657600080fd5b506040518060400160405280600f81526020016e29b7bab63137bab732102a37b5b2b760891b8152506040518060400160405280600381526020016214d09560ea1b81525081600090816200006c919062000129565b5060016200007b828262000129565b505050620001f5565b634e487b7160e01b600052604160045260246000fd5b600181811c90821680620000af57607f821691505b602082108103620000d057634e487b7160e01b600052602260045260246000fd5b50919050565b601f8211156200012457600081815260208120601f850160051c81016020861015620000ff5750805b601f850160051c820191505b8181101562000120578281556001016200010b565b5050505b505050565b81516001600160401b0381111562000145576200014562000084565b6200015d816200015684546200009a565b84620000d6565b602080601f8311600181146200019557600084156200017c5750858301515b600019600386901b1c1916600185901b17855562000120565b600085815260208120601f198616915b82811015620001c657888601518255948401946001909101908401620001a5565b5085821015620001e55787850151600019600388901b60f8161c191681555b5050505050600190811b01905550565b61154780620002056000396000f3fe6080604052600436106100f35760003560e01c806342966c681161008a578063a22cb46511610059578063a22cb46514610295578063b88d4fde146102b5578063c87b56dd146102d5578063e985e9c5146102f557600080fd5b806342966c68146102205780636352211e1461024057806370a082311461026057806395d89b411461028057600080fd5b806317d70f7c116100c657806317d70f7c146101a957806323b872dd146101cd57806340d097c3146101ed57806342842e0e1461020057600080fd5b806301ffc9a7146100f857806306fdde031461012d578063081812fc1461014f578063095ea7b314610187575b600080fd5b34801561010457600080fd5b5061011861011336600461105d565b61033e565b60405190151581526020015b60405180910390f35b34801561013957600080fd5b50610142610390565b60405161012491906110d2565b34801561015b57600080fd5b5061016f61016a3660046110e5565b610422565b6040516001600160a01b039091168152602001610124565b34801561019357600080fd5b506101a76101a236600461111a565b610449565b005b3480156101b557600080fd5b506101bf60065481565b604051908152602001610124565b3480156101d957600080fd5b506101a76101e8366004611144565b610563565b6101a76101fb366004611180565b610595565b34801561020c57600080fd5b506101a761021b366004611144565b6105b7565b34801561022c57600080fd5b506101a761023b3660046110e5565b6105d2565b34801561024c57600080fd5b5061016f61025b3660046110e5565b610603565b34801561026c57600080fd5b506101bf61027b366004611180565b610663565b34801561028c57600080fd5b506101426106e9565b3480156102a157600080fd5b506101a76102b036600461119b565b6106f8565b3480156102c157600080fd5b506101a76102d03660046111ed565b610707565b3480156102e157600080fd5b506101426102f03660046110e5565b61073f565b34801561030157600080fd5b506101186103103660046112c9565b6001600160a01b03918216600090815260056020908152604080832093909416825291909152205460ff1690565b60006001600160e01b031982166380ac58cd60e01b148061036f57506001600160e01b03198216635b5e139f60e01b145b8061038a57506301ffc9a760e01b6001600160e01b03198316145b92915050565b60606000805461039f906112fc565b80601f01602080910402602001604051908101604052809291908181526020018280546103cb906112fc565b80156104185780601f106103ed57610100808354040283529160200191610418565b820191906000526020600020905b8154815290600101906020018083116103fb57829003601f168201915b5050505050905090565b600061042d826107b3565b506000908152600460205260409020546001600160a01b031690565b600061045482610603565b9050806001600160a01b0316836001600160a01b0316036104c65760405162461bcd60e51b815260206004820152602160248201527f4552433732313a20617070726f76616c20746f2063757272656e74206f776e656044820152603960f91b60648201526084015b60405180910390fd5b336001600160a01b03821614806104e257506104e28133610310565b6105545760405162461bcd60e51b815260206004820152603e60248201527f4552433732313a20617070726f76652063616c6c6572206973206e6f7420746f60448201527f6b656e206f776e6572206e6f7220617070726f76656420666f7220616c6c000060648201526084016104bd565b61055e8383610812565b505050565b61056e335b82610880565b61058a5760405162461bcd60e51b81526004016104bd90611336565b61055e8383836108ff565b6105a181600654610ab5565b6006600081546105b09061139a565b9091555050565b61055e83838360405180602001604052806000815250610707565b6105db33610568565b6105f75760405162461bcd60e51b81526004016104bd90611336565b61060081610acf565b50565b6000818152600260205260408120546001600160a01b03168061038a5760405162461bcd60e51b8152602060048201526018602482015277115490cdcc8c4e881a5b9d985b1a59081d1bdad95b88125160421b60448201526064016104bd565b60006001600160a01b0382166106cd5760405162461bcd60e51b815260206004820152602960248201527f4552433732313a2061646472657373207a65726f206973206e6f7420612076616044820152683634b21037bbb732b960b91b60648201526084016104bd565b506001600160a01b031660009081526003602052604090205490565b60606001805461039f906112fc565b610703338383610b85565b5050565b6107113383610880565b61072d5760405162461bcd60e51b81526004016104bd90611336565b61073984848484610c53565b50505050565b606061074a826107b3565b600061076160408051602081019091526000815290565b9050600081511161078157604051806020016040528060008152506107ac565b8061078b84610c86565b60405160200161079c9291906113b3565b6040516020818303038152906040525b9392505050565b6000818152600260205260409020546001600160a01b03166106005760405162461bcd60e51b8152602060048201526018602482015277115490cdcc8c4e881a5b9d985b1a59081d1bdad95b88125160421b60448201526064016104bd565b600081815260046020526040902080546001600160a01b0319166001600160a01b038416908117909155819061084782610603565b6001600160a01b03167f8c5be1e5ebec7d5bd14f71427d1e84f3dd0314c0f7b2291e5b200ac8c7c3b92560405160405180910390a45050565b60008061088c83610603565b9050806001600160a01b0316846001600160a01b031614806108d357506001600160a01b0380821660009081526005602090815260408083209388168352929052205460ff165b806108f75750836001600160a01b03166108ec84610422565b6001600160a01b0316145b949350505050565b826001600160a01b031661091282610603565b6001600160a01b0316146109765760405162461bcd60e51b815260206004820152602560248201527f4552433732313a207472616e736665722066726f6d20696e636f72726563742060448201526437bbb732b960d91b60648201526084016104bd565b6001600160a01b0382166109d85760405162461bcd60e51b8152602060048201526024808201527f4552433732313a207472616e7366657220746f20746865207a65726f206164646044820152637265737360e01b60648201526084016104bd565b6109e3838383610d87565b600081815260046020908152604080832080546001600160a01b03191690556001600160a01b038616835260039091528120805460019290610a269084906113e2565b90915550506001600160a01b0382166000908152600360205260408120805460019290610a549084906113f9565b909155505060008181526002602052604080822080546001600160a01b0319166001600160a01b0386811691821790925591518493918716917fddf252ad1be2c89b69c2b068fc378daa952ba7f163c4a11628f55a4df523b3ef91a4505050565b610703828260405180602001604052806000815250610dc5565b6000610ada82610603565b9050610ae881600084610d87565b600082815260046020908152604080832080546001600160a01b03191690556001600160a01b038416835260039091528120805460019290610b2b9084906113e2565b909155505060008281526002602052604080822080546001600160a01b0319169055518391906001600160a01b038416907fddf252ad1be2c89b69c2b068fc378daa952ba7f163c4a11628f55a4df523b3ef908390a45050565b816001600160a01b0316836001600160a01b031603610be65760405162461bcd60e51b815260206004820152601960248201527f4552433732313a20617070726f766520746f2063616c6c65720000000000000060448201526064016104bd565b6001600160a01b03838116600081815260056020908152604080832094871680845294825291829020805460ff191686151590811790915591519182527f17307eab39ab6107e8899845ad3d59bd9653f200f220920489ca2b5937696c31910160405180910390a3505050565b610c5e8484846108ff565b610c6a84848484610df8565b6107395760405162461bcd60e51b81526004016104bd90611411565b606081600003610cad5750506040805180820190915260018152600360fc1b602082015290565b8160005b8115610cd75780610cc18161139a565b9150610cd09050600a83611479565b9150610cb1565b60008167ffffffffffffffff811115610cf257610cf26111d7565b6040519080825280601f01601f191660200182016040528015610d1c576020820181803683370190505b5090505b84156108f757610d316001836113e2565b9150610d3e600a8661148d565b610d499060306113f9565b60f81b818381518110610d5e57610d5e6114a1565b60200101906001600160f81b031916908160001a905350610d80600a86611479565b9450610d20565b6001600160a01b03831615801590610da757506001600160a01b03821615155b1561055e576040516358b2164f60e11b815260040160405180910390fd5b610dcf8383610ef9565b610ddc6000848484610df8565b61055e5760405162461bcd60e51b81526004016104bd90611411565b60006001600160a01b0384163b15610eee57604051630a85bd0160e11b81526001600160a01b0385169063150b7a0290610e3c9033908990889088906004016114b7565b6020604051808303816000875af1925050508015610e77575060408051601f3d908101601f19168201909252610e74918101906114f4565b60015b610ed4573d808015610ea5576040519150601f19603f3d011682016040523d82523d6000602084013e610eaa565b606091505b508051600003610ecc5760405162461bcd60e51b81526004016104bd90611411565b805181602001fd5b6001600160e01b031916630a85bd0160e11b1490506108f7565b506001949350505050565b6001600160a01b038216610f4f5760405162461bcd60e51b815260206004820181905260248201527f4552433732313a206d696e7420746f20746865207a65726f206164647265737360448201526064016104bd565b6000818152600260205260409020546001600160a01b031615610fb45760405162461bcd60e51b815260206004820152601c60248201527f4552433732313a20746f6b656e20616c7265616479206d696e7465640000000060448201526064016104bd565b610fc060008383610d87565b6001600160a01b0382166000908152600360205260408120805460019290610fe99084906113f9565b909155505060008181526002602052604080822080546001600160a01b0319166001600160a01b03861690811790915590518392907fddf252ad1be2c89b69c2b068fc378daa952ba7f163c4a11628f55a4df523b3ef908290a45050565b6001600160e01b03198116811461060057600080fd5b60006020828403121561106f57600080fd5b81356107ac81611047565b60005b8381101561109557818101518382015260200161107d565b838111156107395750506000910152565b600081518084526110be81602086016020860161107a565b601f01601f19169290920160200192915050565b6020815260006107ac60208301846110a6565b6000602082840312156110f757600080fd5b5035919050565b80356001600160a01b038116811461111557600080fd5b919050565b6000806040838503121561112d57600080fd5b611136836110fe565b946020939093013593505050565b60008060006060848603121561115957600080fd5b611162846110fe565b9250611170602085016110fe565b9150604084013590509250925092565b60006020828403121561119257600080fd5b6107ac826110fe565b600080604083850312156111ae57600080fd5b6111b7836110fe565b9150602083013580151581146111cc57600080fd5b809150509250929050565b634e487b7160e01b600052604160045260246000fd5b6000806000806080858703121561120357600080fd5b61120c856110fe565b935061121a602086016110fe565b925060408501359150606085013567ffffffffffffffff8082111561123e57600080fd5b818701915087601f83011261125257600080fd5b813581811115611264576112646111d7565b604051601f8201601f19908116603f0116810190838211818310171561128c5761128c6111d7565b816040528281528a60208487010111156112a557600080fd5b82602086016020830137600060208483010152809550505050505092959194509250565b600080604083850312156112dc57600080fd5b6112e5836110fe565b91506112f3602084016110fe565b90509250929050565b600181811c9082168061131057607f821691505b60208210810361133057634e487b7160e01b600052602260045260246000fd5b50919050565b6020808252602e908201527f4552433732313a2063616c6c6572206973206e6f7420746f6b656e206f776e6560408201526d1c881b9bdc88185c1c1c9bdd995960921b606082015260800190565b634e487b7160e01b600052601160045260246000fd5b6000600182016113ac576113ac611384565b5060010190565b600083516113c581846020880161107a565b8351908301906113d981836020880161107a565b01949350505050565b6000828210156113f4576113f4611384565b500390565b6000821982111561140c5761140c611384565b500190565b60208082526032908201527f4552433732313a207472616e7366657220746f206e6f6e20455243373231526560408201527131b2b4bb32b91034b6b83632b6b2b73a32b960711b606082015260800190565b634e487b7160e01b600052601260045260246000fd5b60008261148857611488611463565b500490565b60008261149c5761149c611463565b500690565b634e487b7160e01b600052603260045260246000fd5b6001600160a01b03858116825284166020820152604081018390526080606082018190526000906114ea908301846110a6565b9695505050505050565b60006020828403121561150657600080fd5b81516107ac8161104756fea26469706673582212202ea57e9c0af3b4b118771c7a4c92890e835673e3063517c4865da0d49e1aa12a64736f6c634300080f0033",
    "linkReferences": {}
  },
  "methodIdentifiers": {
    "approve(address,uint256)": "095ea7b3",
    "balanceOf(address)": "70a08231",
    "burn(uint256)": "42966c68",
    "getApproved(uint256)": "081812fc",
    "isApprovedForAll(address,address)": "e985e9c5",
    "name()": "06fdde03",
    "ownerOf(uint256)": "6352211e",
    "safeMint(address)": "40d097c3",
    "safeTransferFrom(address,address,uint256)": "42842e0e",
    "safeTransferFrom(address,address,uint256,bytes)": "b88d4fde",
    "setApprovalForAll(address,bool)": "a22cb465",
    "supportsInterface(bytes4)": "01ffc9a7",
    "symbol()": "95d89b41",
    "tokenId()": "17d70f7c",
    "tokenURI(uint256)": "c87b56dd",
    "transferFrom(address,address,uint256)": "23b872dd"
  },
  "id": 16
}