{
  "abi": [
    {
      "inputs": [],
      "stateMutability": "nonpayable",
      "type": "constructor"
    },
    {
      "inputs": [],
      "name": "TokenIsSoulbound",
      "type": "error"
    },
    {
      "anonymous": false,
      "inputs": [
        {
          "indexed": true,
          "internalType": "address",
          "name": "owner",
          "type": "address"
        },
        {
          "indexed": true,
          "internalType": "address",
          "name": "approved",
          "type": "address"
        },
        {
          "indexed": true,
          "internalType": "uint256",
          "name": "tokenId",
          "type": "uint256"
        }
      ],
      "name": "Approval",
      "type": "event"
    },
    {
      "anonymous": false,
      "inputs": [
        {
          "indexed": true,
          "internalType": "address",
          "name": "owner",
          "type": "address"
        },
        {
          "indexed": true,
          "internalType": "address",
          "name": "operator",
          "type": "address"
        },
        {
          "indexed": false,
          "internalType": "bool",
          "name": "approved",
          "type": "bool"
        }
      ],
      "name": "ApprovalForAll",
      "type": "event"
    },
    {
      "anonymous": false,
      "inputs": [
        {
          "indexed": true,
          "internalType": "address",
          "name": "from",
          "type": "address"
        },
        {
          "indexed": true,
          "internalType": "address",
          "name": "to",
          "type": "address"
        },
        {
          "indexed": true,
          "internalType": "uint256",
          "name": "tokenId",
          "type": "uint256"
        }
      ],
      "name": "Transfer",
      "type": "event"
    },
    {
      "inputs": [
        {
          "internalType": "address",
          "name": "to",
          "type": "address"
        },
        {
          "internalType": "uint256",
          "name": "tokenId",
          "type": "uint256"
        }
      ],
      "name": "approve",
      "outputs": [],
      "stateMutability": "nonpayable",
      "type": "function"
    },
    {
      "inputs": [
        {
          "internalType": "address",
          "name": "owner",
          "type": "address"
        }
      ],
      "name": "balanceOf",
      "outputs": [
        {
          "internalType": "uint256",
          "name": "",
          "type": "uint256"
        }
      ],
      "stateMutability": "view",
      "type": "function"
    },
    {
      "inputs": [
        {
          "internalType": "uint256",
          "name": "tokenId",
          "type": "uint256"
        }
      ],
      "name": "burn",
      "outputs": [],
      "stateMutability": "nonpayable",
      "type": "function"
    },
    {
      "inputs": [
        {
          "internalType": "uint256",
          "name": "tokenId",
          "type": "uint256"
        }
      ],
      "name": "getApproved",
      "outputs": [
        {
          "internalType": "address",
          "name": "",
          "type": "address"
        }
      ],
      "stateMutability": "view",
      "type": "function"
    },
    {
      "inputs": [
        {
          "internalType": "address",
          "name": "owner",
          "type": "address"
        },
        {
          "internalType": "address",
          "name": "operator",
          "type": "address"
        }
      ],
      "name": "isApprovedForAll",
      "outputs": [
        {
          "internalType": "bool",
          "name": "",
          "type": "bool"
        }
      ],
      "stateMutability": "view",
      "type": "function"
    },
    {
      "inputs": [],
      "name": "name",
      "outputs": [
        {
          "internalType": "string",
          "name": "",
          "type": "string"
        }
      ],
      "stateMutability": "view",
      "type": "function"
    },
    {
      "inputs": [
        {
          "internalType": "uint256",
          "name": "tokenId",
          "type": "uint256"
        }
      ],
      "name": "ownerOf",
      "outputs": [
        {
          "internalType": "address",
          "name": "",
          "type": "address"
        }
      ],
      "stateMutability": "view",
      "type": "function"
    },
    {
      "inputs": [
        {
          "internalType": "address",
          "name": "from",
          "type": "address"
        },
        {
          "internalType": "address",
          "name": "to",
          "type": "address"
        },
        {
          "internalType": "uint256",
          "name": "tokenId",
          "type": "uint256"
        }
      ],
      "name": "safeTransferFrom",
      "outputs": [],
      "stateMutability": "nonpayable",
      "type": "function"
    },
    {
      "inputs": [
        {
          "internalType": "address",
          "name": "from",
          "type": "address"
        },
        {
          "internalType": "address",
          "name": "to",
          "type": "address"
        },
        {
          "internalType": "uint256",
          "name": "tokenId",
          "type": "uint256"
        },
        {
          "internalType": "bytes",
          "name": "data",
          "type": "bytes"
        }
      ],
      "name": "safeTransferFrom",
      "outputs": [],
      "stateMutability": "nonpayable",
      "type": "function"
    },
    {
      "inputs": [
        {
          "internalType": "address",
          "name": "operator",
          "type": "address"
        },
        {
          "internalType": "bool",
          "name": "approved",
          "type": "bool"
        }
      ],
      "name": "setApprovalForAll",
      "outputs": [],
      "stateMutability": "nonpayable",
      "type": "function"
    },
    {
      "inputs": [
        {
          "internalType": "bytes4",
          "name": "interfaceId",
          "type": "bytes4"
        }
      ],
      "name": "supportsInterface",
      "outputs": [
        {
          "internalType": "bool",
          "name": "",
          "type": "bool"
        }
      ],
      "stateMutability": "view",
      "type": "function"
    },
    {
      "inputs": [],
      "name": "symbol",
      "outputs": [
        {
          "internalType": "string",
          "name": "",
          "type": "string"
        }
      ],
      "stateMutability": "view",
      "type": "function"
    },
    {
      "inputs": [
        {
          "internalType": "uint256",
          "name": "tokenId",
          "type": "uint256"
        }
      ],
      "name": "tokenURI",
      "outputs": [
        {
          "internalType": "string",
          "name": "",
          "type": "string"
        }
      ],
      "stateMutability": "view",
      "type": "function"
    },
    {
      "inputs": [
        {
          "internalType": "address",
          "name": "from",
          "type": "address"
        },
        {
          "internalType": "address",
          "name": "to",
          "type": "address"
        },
        {
          "internalType": "uint256",
          "name": "tokenId",
          "type": "uint256"
        }
      ],
      "name": "transferFrom",
      "outputs": [],
      "stateMutability": "nonpayable",
      "type": "function"
    }
  ],
  "bytecode": {
    "object": "0x60806040523480156200001157600080fd5b506040518060400160405280600f81526020016e29b7bab63137bab732102a37b5b2b760891b8152506040518060400160405280600381526020016214d09560ea1b815250816000908162000067919062000124565b50600162000076828262000124565b505050620001f0565b634e487b7160e01b600052604160045260246000fd5b600181811c90821680620000aa57607f821691505b602082108103620000cb57634e487b7160e01b600052602260045260246000fd5b50919050565b601f8211156200011f57600081815260208120601f850160051c81016020861015620000fa5750805b601f850160051c820191505b818110156200011b5782815560010162000106565b5050505b505050565b81516001600160401b038111156200014057620001406200007f565b620001588162000151845462000095565b84620000d1565b602080601f831160018114620001905760008415620001775750858301515b600019600386901b1c1916600185901b1785556200011b565b600085815260208120601f198616915b82811015620001c157888601518255948401946001909101908401620001a0565b5085821015620001e05787850151600019600388901b60f8161c191681555b5050505050600190811b01905550565b6112a280620002006000396000f3fe608060405234801561001057600080fd5b50600436106100ea5760003560e01c80636352211e1161008c578063a22cb46511610066578063a22cb465146101e1578063b88d4fde146101f4578063c87b56dd14610207578063e985e9c51461021a57600080fd5b80636352211e146101a557806370a08231146101b857806395d89b41146101d957600080fd5b8063095ea7b3116100c8578063095ea7b31461015757806323b872dd1461016c57806342842e0e1461017f57806342966c681461019257600080fd5b806301ffc9a7146100ef57806306fdde0314610117578063081812fc1461012c575b600080fd5b6101026100fd366004610db8565b610256565b60405190151581526020015b60405180910390f35b61011f6102a8565b60405161010e9190610e2d565b61013f61013a366004610e40565b61033a565b6040516001600160a01b03909116815260200161010e565b61016a610165366004610e75565b610361565b005b61016a61017a366004610e9f565b61047b565b61016a61018d366004610e9f565b6104ad565b61016a6101a0366004610e40565b6104c8565b61013f6101b3366004610e40565b6104f9565b6101cb6101c6366004610edb565b610559565b60405190815260200161010e565b61011f6105df565b61016a6101ef366004610ef6565b6105ee565b61016a610202366004610f48565b6105fd565b61011f610215366004610e40565b610635565b610102610228366004611024565b6001600160a01b03918216600090815260056020908152604080832093909416825291909152205460ff1690565b60006001600160e01b031982166380ac58cd60e01b148061028757506001600160e01b03198216635b5e139f60e01b145b806102a257506301ffc9a760e01b6001600160e01b03198316145b92915050565b6060600080546102b790611057565b80601f01602080910402602001604051908101604052809291908181526020018280546102e390611057565b80156103305780601f1061030557610100808354040283529160200191610330565b820191906000526020600020905b81548152906001019060200180831161031357829003601f168201915b5050505050905090565b6000610345826106a9565b506000908152600460205260409020546001600160a01b031690565b600061036c826104f9565b9050806001600160a01b0316836001600160a01b0316036103de5760405162461bcd60e51b815260206004820152602160248201527f4552433732313a20617070726f76616c20746f2063757272656e74206f776e656044820152603960f91b60648201526084015b60405180910390fd5b336001600160a01b03821614806103fa57506103fa8133610228565b61046c5760405162461bcd60e51b815260206004820152603e60248201527f4552433732313a20617070726f76652063616c6c6572206973206e6f7420746f60448201527f6b656e206f776e6572206e6f7220617070726f76656420666f7220616c6c000060648201526084016103d5565b6104768383610708565b505050565b610486335b82610776565b6104a25760405162461bcd60e51b81526004016103d590611091565b6104768383836107f5565b610476838383604051806020016040528060008152506105fd565b6104d133610480565b6104ed5760405162461bcd60e51b81526004016103d590611091565b6104f6816109ab565b50565b6000818152600260205260408120546001600160a01b0316806102a25760405162461bcd60e51b8152602060048201526018602482015277115490cdcc8c4e881a5b9d985b1a59081d1bdad95b88125160421b60448201526064016103d5565b60006001600160a01b0382166105c35760405162461bcd60e51b815260206004820152602960248201527f4552433732313a2061646472657373207a65726f206973206e6f7420612076616044820152683634b21037bbb732b960b91b60648201526084016103d5565b506001600160a01b031660009081526003602052604090205490565b6060600180546102b790611057565b6105f9338383610a61565b5050565b6106073383610776565b6106235760405162461bcd60e51b81526004016103d590611091565b61062f84848484610b2f565b50505050565b6060610640826106a9565b600061065760408051602081019091526000815290565b9050600081511161067757604051806020016040528060008152506106a2565b8061068184610b62565b6040516020016106929291906110df565b6040516020818303038152906040525b9392505050565b6000818152600260205260409020546001600160a01b03166104f65760405162461bcd60e51b8152602060048201526018602482015277115490cdcc8c4e881a5b9d985b1a59081d1bdad95b88125160421b60448201526064016103d5565b600081815260046020526040902080546001600160a01b0319166001600160a01b038416908117909155819061073d826104f9565b6001600160a01b03167f8c5be1e5ebec7d5bd14f71427d1e84f3dd0314c0f7b2291e5b200ac8c7c3b92560405160405180910390a45050565b600080610782836104f9565b9050806001600160a01b0316846001600160a01b031614806107c957506001600160a01b0380821660009081526005602090815260408083209388168352929052205460ff165b806107ed5750836001600160a01b03166107e28461033a565b6001600160a01b0316145b949350505050565b826001600160a01b0316610808826104f9565b6001600160a01b03161461086c5760405162461bcd60e51b815260206004820152602560248201527f4552433732313a207472616e736665722066726f6d20696e636f72726563742060448201526437bbb732b960d91b60648201526084016103d5565b6001600160a01b0382166108ce5760405162461bcd60e51b8152602060048201526024808201527f4552433732313a207472616e7366657220746f20746865207a65726f206164646044820152637265737360e01b60648201526084016103d5565b6108d9838383610c63565b600081815260046020908152604080832080546001600160a01b03191690556001600160a01b03861683526003909152812080546001929061091c908490611124565b90915550506001600160a01b038216600090815260036020526040812080546001929061094a90849061113b565b909155505060008181526002602052604080822080546001600160a01b0319166001600160a01b0386811691821790925591518493918716917fddf252ad1be2c89b69c2b068fc378daa952ba7f163c4a11628f55a4df523b3ef91a4505050565b60006109b6826104f9565b90506109c481600084610c63565b600082815260046020908152604080832080546001600160a01b03191690556001600160a01b038416835260039091528120805460019290610a07908490611124565b909155505060008281526002602052604080822080546001600160a01b0319169055518391906001600160a01b038416907fddf252ad1be2c89b69c2b068fc378daa952ba7f163c4a11628f55a4df523b3ef908390a45050565b816001600160a01b0316836001600160a01b031603610ac25760405162461bcd60e51b815260206004820152601960248201527f4552433732313a20617070726f766520746f2063616c6c65720000000000000060448201526064016103d5565b6001600160a01b03838116600081815260056020908152604080832094871680845294825291829020805460ff191686151590811790915591519182527f17307eab39ab6107e8899845ad3d59bd9653f200f220920489ca2b5937696c31910160405180910390a3505050565b610b3a8484846107f5565b610b4684848484610ca1565b61062f5760405162461bcd60e51b81526004016103d590611153565b606081600003610b895750506040805180820190915260018152600360fc1b602082015290565b8160005b8115610bb35780610b9d816111a5565b9150610bac9050600a836111d4565b9150610b8d565b60008167ffffffffffffffff811115610bce57610bce610f32565b6040519080825280601f01601f191660200182016040528015610bf8576020820181803683370190505b5090505b84156107ed57610c0d600183611124565b9150610c1a600a866111e8565b610c2590603061113b565b60f81b818381518110610c3a57610c3a6111fc565b60200101906001600160f81b031916908160001a905350610c5c600a866111d4565b9450610bfc565b6001600160a01b03831615801590610c8357506001600160a01b03821615155b15610476576040516358b2164f60e11b815260040160405180910390fd5b60006001600160a01b0384163b15610d9757604051630a85bd0160e11b81526001600160a01b0385169063150b7a0290610ce5903390899088908890600401611212565b6020604051808303816000875af1925050508015610d20575060408051601f3d908101601f19168201909252610d1d9181019061124f565b60015b610d7d573d808015610d4e576040519150601f19603f3d011682016040523d82523d6000602084013e610d53565b606091505b508051600003610d755760405162461bcd60e51b81526004016103d590611153565b805181602001fd5b6001600160e01b031916630a85bd0160e11b1490506107ed565b506001949350505050565b6001600160e01b0319811681146104f657600080fd5b600060208284031215610dca57600080fd5b81356106a281610da2565b60005b83811015610df0578181015183820152602001610dd8565b8381111561062f5750506000910152565b60008151808452610e19816020860160208601610dd5565b601f01601f19169290920160200192915050565b6020815260006106a26020830184610e01565b600060208284031215610e5257600080fd5b5035919050565b80356001600160a01b0381168114610e7057600080fd5b919050565b60008060408385031215610e8857600080fd5b610e9183610e59565b946020939093013593505050565b600080600060608486031215610eb457600080fd5b610ebd84610e59565b9250610ecb60208501610e59565b9150604084013590509250925092565b600060208284031215610eed57600080fd5b6106a282610e59565b60008060408385031215610f0957600080fd5b610f1283610e59565b915060208301358015158114610f2757600080fd5b809150509250929050565b634e487b7160e01b600052604160045260246000fd5b60008060008060808587031215610f5e57600080fd5b610f6785610e59565b9350610f7560208601610e59565b925060408501359150606085013567ffffffffffffffff80821115610f9957600080fd5b818701915087601f830112610fad57600080fd5b813581811115610fbf57610fbf610f32565b604051601f8201601f19908116603f01168101908382118183101715610fe757610fe7610f32565b816040528281528a602084870101111561100057600080fd5b82602086016020830137600060208483010152809550505050505092959194509250565b6000806040838503121561103757600080fd5b61104083610e59565b915061104e60208401610e59565b90509250929050565b600181811c9082168061106b57607f821691505b60208210810361108b57634e487b7160e01b600052602260045260246000fd5b50919050565b6020808252602e908201527f4552433732313a2063616c6c6572206973206e6f7420746f6b656e206f776e6560408201526d1c881b9bdc88185c1c1c9bdd995960921b606082015260800190565b600083516110f1818460208801610dd5565b835190830190611105818360208801610dd5565b01949350505050565b634e487b7160e01b600052601160045260246000fd5b6000828210156111365761113661110e565b500390565b6000821982111561114e5761114e61110e565b500190565b60208082526032908201527f4552433732313a207472616e7366657220746f206e6f6e20455243373231526560408201527131b2b4bb32b91034b6b83632b6b2b73a32b960711b606082015260800190565b6000600182016111b7576111b761110e565b5060010190565b634e487b7160e01b600052601260045260246000fd5b6000826111e3576111e36111be565b500490565b6000826111f7576111f76111be565b500690565b634e487b7160e01b600052603260045260246000fd5b6001600160a01b038581168252841660208201526040810183905260806060820181905260009061124590830184610e01565b9695505050505050565b60006020828403121561126157600080fd5b81516106a281610da256fea2646970667358221220c5988fe0e5d902cc44e6e174e3fcfc34d6dedc20f8e46c549dc4454ba190a0a564736f6c634300080f0033",
    "linkReferences": {}
  },
  "methodIdentifiers": {
    "approve(address,uint256)": "095ea7b3",
    "balanceOf(address)": "70a08231",
    "burn(uint256)": "42966c68",
    "getApproved(uint256)": "081812fc",
    "isApprovedForAll(address,address)": "e985e9c5",
    "name()": "06fdde03",
    "ownerOf(uint256)": "6352211e",
    "safeTransferFrom(address,address,uint256)": "42842e0e",
    "safeTransferFrom(address,address,uint256,bytes)": "b88d4fde",
    "setApprovalForAll(address,bool)": "a22cb465",
    "supportsInterface(bytes4)": "01ffc9a7",
    "symbol()": "95d89b41",
    "tokenURI(uint256)": "c87b56dd",
    "transferFrom(address,address,uint256)": "23b872dd"
  },
  "id": 9
}